:020000040800F2
:10000000005000207D0C0008C10C0008C10C000845
:10001000C10C0008C10C0008C10C00080000000061
:10002000000000000000000000000000C10C0008FB
:10003000C10C000800000000C10C000825040008E5
:10004000C10C0008C10C0008C10C0008C10C00085C
:10005000C10C0008C10C0008C10C0008C10C00084C
:10006000C10C0008C10C0008C10C0008C10C00083C
:10007000C10C0008C10C0008C10C0008C10C00082C
:10008000C10C0008C10C0008C10C0008C10C00081C
:10009000C10C0008C10C0008C10C000835040008A0
:1000A000C10C0008C10C0008C10C0008C10C0008FC
:1000B000C10C0008C10C0008C10C0008C10C0008EC
:1000C000C10C0008C10C0008C10C0008C10C0008DC
:1000D000C10C0008C10C00080D040008C10C000888
:0C00E000C10C0008C10C0008C10C000895
:1000EC004FF04023D3F800241206FBD5C3F80404C8
:1000FC00704708B5411E11F8010F00B908BDFFF794
:10010C00EFFFF8E7082341F2210280EA012001B257
:10011C004000002980B2B8BF5040013BF7D1704776
:10012C0000687047F8B502460430FFF7F9FFC0F3DA
:10013C000A530446002B00F0978040F2FF70834274
:10014C0005D1002C4948A8BF6FF00040F8BDA3F2C0
:10015C00FF361E2EF5DC16F1200FC0F285801046FE
:10016C00C6F13407FFF7DCFFC4F31302342F42F45B
:10017C0080125CDC1F2F1CDDC6F1140722FA07F578
:10018C001FB34FF0FF3C0CFA07FC22EA0C02A3F25F
:10019C00F33302FA03F320FA07F73B43C6F1130CCF
:1001AC0020FA0CF000F001029AB1013308BF0135BE
:1001BC000FE0A3F2134502FA05F520FA07F21543F6
:1001CC004FF0FF32BA4020EA0200A3F2134300FAC8
:1001DC0003F340F6630226480A2908BF0246AA42E6
:1001EC00AFD3180C8AB24FEA114C9FB202FB07F343
:1001FC0042430CFB07F71FFA82FEBEB2764406EBB5
:10020C001346130C6FF0004203EB17430CFB003347
:10021C00694303EB1643C6F3C0363344D21A9142FA
:10022C008FD8002C01EB030090DA40428EE7C6F128
:10023C0014071F2FC6F1130C01D80025A7E76FF088
:10024C000B03BCF11F0FA3EB060322FA03F301D13E
:10025C000025A5E7C6F1FF2606F57F06F336F2402A
:10026C00002502F001029FE700206FE701000080EB
:10027C00CCCCCC0C2DE9F04150EA010305460E46DE
:10028C0086B005D1302006B0BDE8F041FFF728BF9D
:10029C0001AF0024B846284631460A22002301F05B
:1002AC0079F8303207F8012B2A4633460A2A73F1C3
:1002BC00000305460E4604F1010401D3142CEAD1C7
:1002CC00013C18F80400FFF70BFF002CF8D106B026
:1002DC00BDE8F0810021FFF7CDBF0000114B70B5D8
:1002EC00041E53F8215003DA2D20FFF7F9FE644267
:1002FC00B4FBF5F63046FFF7EDFF2E2005FB164458
:10030C00FFF7EEFE0A26B5FBF6F505B970BDB4FB9A
:10031C00F5F0B0FBF6F306FB13003030C0B2FFF77C
:10032C00DFFEF0E7A0180008F8B51E4B064653F8A0
:10033C002240002200230F4601F004F828B12D20A2
:10034C00FFF7CEFE07F100431F46204600F020FFCA
:10035C0032463B4600F0B0FC0022134B00F0DCFDB3
:10036C0001F030F82246002301F014F815461E4621
:10037C00FFF780FF2E20FFF7B3FE0A27B4FBF7F43C
:10038C0004B9F8BD224600232846314601F002F894
:10039C000A22002300F0FEFF02F13000C0B2FFF78A
:1003AC009FFEEBE7A01800080000E03F011E08B517
:1003BC0003DA2D20FFF794FE4842BDE80840FFF712
:1003CC0089BF00000A4A0B49138809880133DBB244
:1003DC0089B2994210B505D01188074C89B2605486
:1003EC00138010BD054A136801331360F9E700BF91
:1003FC00460100204401002048010020400100205B
:10040C004FF04023D3F80024920604D5D3F804040B
:10041C00C0B2FFF7D7BF7047024A136801331360AD
:10042C00704700BF5C0200200C49D1F81424D005A1
:10043C0007D50B480368013303604FF48073C1F890
:10044C001434930508D5074A1368013313604FF42D
:10045C000072024BC3F81424704700BF0000014027
:10046C0058020020540200202DE9F04FC14B85B0FA
:10047C009A690A2142F00D029A61DA690F2642F458
:10048C000032DA61A3F58833D3F80028032422F074
:10049C000F0242F00802C3F80028D3F8002822F01B
:1004AC00F00242F08002C3F80028D3F8002C22F0AE
:1004BC00706242F00062C3F8002CD3F8002C22F0DA
:1004CC00704242F00042C3F8002CD3F8042C22F006
:1004DC000F0242F00802C3F8042CD3F8042C22F0CB
:1004EC00F00242F08002C3F8042CD3F80C2842F03E
:1004FC000302C3F80C28D3F80C2C42F47072C3F826
:10050C000C2CD3F8002822F4706242F43062C3F849
:10051C000028D3F8002822F4704242F48042C3F839
:10052C00002801F00702D3F8040C920006FA02F539
:10053C0020EA050004FA02F2013102431029C3F843
:10054C00042CEED1D3F80C2C452122F47C42C3F8B8
:10055C000C2C4FF04022C2F8081442F22C01C2F8C5
:10056C000C144FF0E0224021C2F804111969002448
:10057C0021F0FF0141F0110119614FF44071C3F8F2
:10058C001414D3F808147C4841F44071C3F80814CF
:10059C00D3F8001441F44071C3F800144FF4000375
:1005AC00C2F8003141F63F73536107239461136124
:1005BC00FFF79FFD7148FFF79CFD7148FFF799FD10
:1005CC00029401946F4CDFF8C091019BD9F8006044
:1005DC00F31A012B42D9019B6C4A02330193D2F8D6
:1005EC0008386B48D2F8081C5A0002F00202C3F318
:1005FC0040031A4307784B0903F00203C1F3C011FF
:10060C000B43644D6449002F4DD10B7001232A70AC
:10061C0003706249624F0A68DFF888C102F0030375
:10062C005A48FF5C1CF80330D0F80C5C1B0325F413
:10063C007C4543EA87232B4355064FF0C005B2FB9C
:10064C00F5F705FB172208BF43F480430AB943F4BE
:10065C000043C0F80C3C0B6801330B60DFF8488199
:10066C00DFF848A1DFF848B1B8F80020BAF800303C
:10067C0092B29BB29A4200F08981B8F800309BB2DA
:10068C001BF80310B8F80030C9B20133DBB2A8F87C
:10069C0000302368072B00F21D81DFE803F02025D2
:1006AC002C374254659D2878DFF808C1424F42EA46
:1006BC008000DCF800E057F820002A707044CCF879
:1006CC0000000878DFF8F4C043EA800057F8207087
:1006DC00DCF800000B703844CCF8000099E7552981
:1006EC00C2D101232360BFE7A1F155004142414132
:1006FC0049002160B8E7324B0A0241F60F501A80CC
:10070C00FFF700FD2F4B18800323EBE72C4A2D4DF0
:10071C00138828880B431380FFF7F4FC04232880EC
:10072C00E0E7284D284B288819700391FFF7EAFC65
:10073C000022264B039928801A6099B1C0298CBFDE
:10074C0013460523CEE7214A1E4F136838885D1CDB
:10075C0015601F4AD154FFF7D5FC1B4B38801B7812
:10076C009D4281D30623BDE71A4B0902198007234A
:10077C00B8E700BF001002405D170008841700089E
:10078C00B3170008D00000205C02002000000140DC
:10079C00480200204A02002049020020D400002018
:1007AC00C0180008BC1800084401002046010020B5
:1007BC004801002050020020C41800084C02002000
:1007CC00CC000020CA000020C8000020C40000207B
:1007DC000200002000000020584A13880B431380AD
:1007EC00574A12889A4240F0A48046F23252554B36
:1007FC001B88934270D1544B1B787B2B6AD1534F7F
:10080C00534D3846FFF78CFC286007F10C00FFF7BE
:10081C0087FC686007F11000FFF782FCA86007F105
:10082C001400FFF77DFCE86007F11800FFF778FC77
:10083C00286107F11C00FFF773FC686107F12000C9
:10084C00FFF76EFCA86107F13000FFF769FCE86167
:10085C0007F13400FFF764FC286207F13800FFF75A
:10086C005FFC686207F14800FFF75AFCA86207F1C9
:10087C004C00FFF755FCE86207F15000FFF750FC05
:10088C003449286307F16000FFF74CFC3149686379
:10089C0007F16800FFF746FC0A21A86307F1700016
:1008AC00FFF740FC97F878302B4A85F8403097F8E2
:1008BC007930E86385F8413097F87A3085F8423022
:1008CC00136801331360D9F80030244A1360244BA9
:1008DC0001221A70002305E746F236329342F9D111
:1008EC00194B1B78112BF5D1184B1E4A1978D81CB3
:1008FC00117059781C4A11709A781C49003A18BF2B
:10090C0001220A70FFF70CFC194A1060D81DFFF782
:10091C0007FC184A106003F10B00FFF701FC164AA4
:10092C00D97B1060154A11701A7C154B1A70154B37
:10093C00CEE7154A136801331360CBE700000020A3
:10094C00CA000020CC000020C800002002000020BB
:10095C00FC00002040420F00F4000020EC000020BE
:10096C00F8000020E9000020E8000020EA00002048
:10097C00E4000020E0000020DC000020D900002072
:10098C00D8000020EB000020F00000208B4B1A78E0
:10099C00002A00F0D38000221A70894B894D1F78F1
:1009AC00002F00F0F680884B1B78022B40F0F18072
:1009BC00864B1B78042B40F2EC80B846844BD3F862
:1009CC0000B0844BD3F800A0834BD3F8009083483D
:1009DC00FFF78FFB824B1868FFF77CFC8148FFF711
:1009EC0088FB814B8148B8F1000F08BF1846FFF710
:1009FC0080FB7F48FFF77DFB002F00F0D180724B0E
:100A0C001878FFF767FC2E20FFF76AFB6F4B1878FE
:100A1C00FFF760FC7748FFF76CFB002F00F0C480F9
:100A2C00754B1878FFF75CFB744B1878FFF758FB85
:100A3C007348FFF75EFB95F84070724B7248042FB9
:100A4C0018BF1846FFF755FB7048FFF752FBB8F17B
:100A5C00000F00F0AD806E4B6E481A786E4B002A7A
:100A6C0008BF1846FFF745FB6C48FFF742FB062111
:100A7C005846FFF733FC6A48FFF73BFB062150460C
:100A8C00FFF72CFC6748FFF734FB01214846FFF7C2
:100A9C0025FC6548FFF72DFB686800F09BFB0222E4
:100AAC00FFF742FC2C20FFF71BFBA86800F092FB21
:100ABC000222FFF739FC2C20FFF712FBE86800F04C
:100ACC0089FB0222FFF730FC5848FFF712FB28691C
:100ADC0000F080FB0322FFF727FC2C20FFF700FB24
:100AEC00686900F077FB0322FFF71EFC2C20FFF750
:100AFC00F7FAA86900F06EFB0322FFF715FC4C48CF
:100B0C00FFF7F7FA4B4B1868FFF750FC4A48FFF712
:100B1C00F0FA4A4B1868FFF749FC4948FFF7E9FA25
:100B2C00484B1868FFF7D6FB4748FFF7E2FA474BEC
:100B3C001868FFF7CFFB4648FFF7DBFA40F2DB52B1
:100B4C00444B1B68F31A934216D9029BF31AB3F564
:100B5C007A7F11D34048FFF7CCFA404B1868FFF767
:100B6C00B9FB3F48FFF7C5FA3E4B1868FFF7B2FBDD
:100B7C003D48FFF7BEFA02964FF04023D3F800240D
:100B8C0092067FF520ADD3F80404C0B2FFF71AFC2F
:100B9C0019E54FF00008D5E90DBAD5F83C9016E7E9
:100BAC003248FFF7A6FA35E73048FFF7A2FA3FE7DD
:100BBC001848194B042F18BF184653E7F8000020AB
:100BCC00EB000020FC000020E9000020E8000020E1
:100BDC00E4000020E0000020DC000020F3170008F7
:100BEC00F4000020051800084D17000844170008F1
:100BFC000B18000814180008D9000020D800002099
:100C0C001A1800085417000850170008211800087B
:100C1C00EA00002059170008571700082718000889
:100C2C002D18000833180008391800083F18000860
:100C3C004518000850020020491800084C020020FA
:100C4C004D180008580200205218000854020020C9
:100C5C00A0170008EC00002057180008F000002036
:100C6C0068180008400100207118000811180008CD
:100C7C000B480C490C4A914200D304E050F8043B59
:100C8C0041F8043BF7E70949094A0023914200D394
:100C9C0002E041F8043BF9E7FFF7E6FBFEE7000052
:100CAC000C190008000000200000002000000020AB
:100CBC0060020020FEE7000070B54FF0FF0C4CF412
:100CCC00E06C1CEA11541DBF1CEA135594EA0C0F7E
:100CDC0095EA0C0F00F0DEF82C4481EA030621EAB9
:100CEC004C5123EA4C5350EA013518BF52EA0335F4
:100CFC0041F4801143F4801338D0A0FB02CE4FF0A6
:100D0C000005E1FB02E506F00042E0FB03E54FF0D5
:100D1C000006E1FB03569CF0000F18BF4EF0010ECD
:100D2C00A4F1FF04B6F5007F64F5407404D25FEAC9
:100D3C004E0E6D4146EB060642EAC62141EA55517C
:100D4C004FEAC52040EA5E504FEACE2EB4F1FD0CBE
:100D5C0088BFBCF5E06F1ED8BEF1004F08BF5FEA3C
:100D6C00500E50F1000041EB045170BD06F00046EE
:100D7C0046EA010140EA020081EA0301B4EB5C049B
:100D8C00C2BFD4EB0C0541EA045170BD41F4801193
:100D9C004FF0000E013C00F3AB8014F1360FDEBFB8
:100DAC00002001F0004170BDC4F10004203C35DA94
:100DBC000C341BDC04F11404C4F1200500FA05F317
:100DCC0020FA04F001FA05F240EA020001F00042B8
:100DDC0021F0004110EBD37021FA04F642EB06012E
:100DEC005EEA430E08BF20EAD37070BDC4F10C0458
:100DFC00C4F1200500FA04F320FA05F001FA04F21C
:100E0C0040EA020001F0004110EBD37041F1000107
:100E1C005EEA430E08BF20EAD37070BDC4F1200512
:100E2C0000FA05F24EEA020E20FA04F301FA05F27A
:100E3C0043EA020321FA04F001F0004121FA04F222
:100E4C0020EA020000EBD3705EEA430E08BF20EAF2
:100E5C00D37070BD94F0000F0FD101F0004640002C
:100E6C0041EB010111F4801F08BF013CF7D041EAAE
:100E7C00060195F0000F18BF704703F000465200B2
:100E8C0043EB030313F4801F08BF013DF7D043EA83
:100E9C000603704794EA0C0F0CEA135518BF95EA39
:100EAC000C0F0CD050EA410618BF52EA4306D1D1C0
:100EBC0081EA030101F000414FF0000070BD50EADF
:100ECC00410606BF1046194652EA430619D094EA69
:100EDC000C0F02D150EA013613D195EA0C0F05D153
:100EEC0052EA03361CBF104619460AD181EA0301A7
:100EFC0001F0004141F0FE4141F470014FF000005F
:100F0C0070BD41F0FE4141F4780170BD81F00041AB
:100F1C0002E000BF83F0004330B54FEA41044FEAD2
:100F2C00430594EA050F08BF90EA020F1FBF54EA6D
:100F3C00000C55EA020C7FEA645C7FEA655C00F009
:100F4C00E2804FEA5454D4EB5555B8BF6D420CDDDA
:100F5C002C4480EA020281EA030382EA000083EA5D
:100F6C00010180EA020281EA0303362D88BF30BDFD
:100F7C0011F0004F4FEA01314FF4801C4CEA113153
:100F8C0002D0404261EB410113F0004F4FEA0333B2
:100F9C004CEA133302D0524263EB430394EA050F3D
:100FAC0000F0A780A4F10104D5F1200E0DDB02FAAC
:100FBC000EFC22FA05F2801841F1000103FA0EF240
:100FCC00801843FA05F359410EE0A5F120050EF106
:100FDC00200E012A03FA0EFC28BF4CF0020C43FA37
:100FEC0005F3C01851EBE37101F0004507D54FF044
:100FFC00000EDCF1000C7EEB00006EEB0101B1F594
:10100C00801F1BD3B1F5001F0CD349085FEA3000D9
:10101C004FEA3C0C04F101044FEA445212F5800FE4
:10102C0080F09A80BCF1004F08BF5FEA500C50F181
:10103C00000041EB045141EA050130BD5FEA4C0C64
:10104C00404141EB0101013C28BFB1F5801FE9D2C1
:10105C0091F0000F04BF01460020B1FA81F308BFE4
:10106C002033A3F10B03B3F120020CDA0C3208DDB0
:10107C0002F1140CC2F10C0201FA0CF021FA02F18B
:10108C000CE002F11402D8BFC2F1200C01FA02F1FB
:10109C0020FA0CFCDCBF41EA0C019040E41AA2BF20
:1010AC0001EB0451294330BD6FEA04041F3C1CDAE8
:1010BC000C340EDC04F11404C4F1200220FA04F008
:1010CC0001FA02F340EA030021FA04F345EA0301B2
:1010DC0030BDC4F10C04C4F1200220FA02F001FA74
:1010EC0004F340EA0300294630BD21FA04F02946F6
:1010FC0030BD94F0000F83F4801306BF81F480118F
:10110C000134013D4EE77FEA645C18BF7FEA655C01
:10111C0029D094EA050F08BF90EA020F05D054EAD3
:10112C00000C04BF1946104630BD91EA030F1EBFD8
:10113C000021002030BD5FEA545C05D140004941DC
:10114C0028BF41F0004130BD14F580043CBF01F5CF
:10115C00801130BD01F0004545F0FE4141F47001B5
:10116C004FF0000030BD7FEA645C1ABF1946104690
:10117C007FEA655C1CBF0B46024650EA013406BF91
:10118C0052EA033591EA030F41F4002130BD00BF50
:10119C0090F0000F04BF0021704730B54FF480640D
:1011AC0004F132044FF000054FF0000150E700BF8E
:1011BC0090F0000F04BF0021704730B54FF48064ED
:1011CC0004F1320410F0004548BF40424FF00001DA
:1011DC003EE700BF42004FEAE2014FEA31014FEA1D
:1011EC0002701FBF12F07F4393F07F4F81F060516C
:1011FC00704732F07F4208BF704793F07F4F04BFB7
:10120C0041F40021704730B54FF4607401F0004593
:10121C0021F000411CE700BF50EA010208BF7047F3
:10122C0030B54FF000050AE050EA010208BF7047E4
:10123C0030B511F0004502D5404261EB41014FF44D
:10124C00806404F132045FEA915C3FF4D8AE4FF055
:10125C0003025FEADC0C18BF03325FEADC0C18BF38
:10126C00033202EBDC02C2F1200300FA03FC20FA89
:10127C0002F001FA03FE40EA0E0021FA02F11444D6
:10128C00BDE600BF4FF0FF3C06E000BF4FF0010C85
:10129C0002E000BF4FF0010C4DF804CD4FEA410CB9
:1012AC007FEA6C5C4FEA430C18BF7FEA6C5C1BD086
:1012BC0001B050EA410C0CBF52EA430C91EA030F07
:1012CC0002BF90EA020F0020704710F1000F91EA64
:1012DC00030F58BF994208BF90422CBFD8176FEA32
:1012EC00E37040F0010070474FEA410C7FEA6C5C00
:1012FC0002D150EA013C07D14FEA430C7FEA6C5C07
:10130C00D6D152EA033CD3D05DF8040B704700BF32
:10131C008446104662468C461946634600E000BF80
:10132C0001B5FFF7B7FF002848BF10F1000F01BD52
:10133C004DF808EDFFF7F4FF0CBF012000205DF81D
:10134C0008FB00BF4DF808EDFFF7EAFF34BF0120A2
:10135C0000205DF808FB00BF4DF808EDFFF7E0FF3B
:10136C0094BF012000205DF808FB00BF4DF808ED8C
:10137C00FFF7CEFF94BF012000205DF808FB00BFF3
:10138C004DF808EDFFF7C4FF34BF012000205DF8D5
:10139C0008FB00BF53B94AB9002908BF00281CBF7D
:1013AC004FF0FF314FF0FF3000F0A4B9ADF1080C55
:1013BC006DE904CE00F024F8DDF804E0DDE9022349
:1013CC0004B07047D0B500220B4B06460F46FFF712
:1013DC0073FC00F091F90446FFF7DAFE0022074B8C
:1013EC00FFF76AFC02460B4630463946FFF792FD82
:1013FC0000F082F92146D0BD0000F03D0000F04124
:10140C002DE9F047089D0F4604468E46002B48D127
:10141C008A42164661D9B2FA82F24AB1C2F120036D
:10142C0001FA02FE20FA03F3964043EA0E0E9440B2
:10143C004FEA164CBEFBFCF1B7B20CFB11EE01FBF4
:10144C0007F0230C43EA0E43984209D9F31801F133
:10145C00FF3E80F0ED80984240F2EA80023933443E
:10146C001B1AB3FBFCF00CFB103300FB07F7A4B208
:10147C0044EA0344A74209D9341900F1FF3380F040
:10148C00D980A74240F2D6803444023840EA014069
:10149C000021E41B1DB10023D440C5E90043BDE885
:1014AC00F0878B4206D90DB1C5E900010021084631
:1014BC00BDE8F087B3FA83F1002947D1BB4202D3D0
:1014CC00824200F20481841A67EB030201209646E3
:1014DC00002DE4D0C5E9004EE1E7002A00F0908031
:1014EC00B2FA82F2002A40F0A780881B0121370C47
:1014FC001FFA86FEB0FBF7FC07FB1C00230C43EA2B
:10150C0000430EFB0CF0984207D9F3180CF1FF388E
:10151C0002D2984200F2E080C4461B1AB3FBF7F0EB
:10152C0007FB10330EFB00FEA4B244EA0344A645AD
:10153C0007D9341900F1FF3302D2A64500F2C98055
:10154C001846A4EB0E0440EA0C40A3E7C1F12006B8
:10155C008B4022FA06FC4CEA030C27FA06FA4FEAF7
:10156C001C49BAFBF9F88F4020FA06F309FB18AABC
:10157C001FFA8CFE3B4300FA01F708FB0EF01C0C23
:10158C0044EA0A44A04202FA01F20BD91CEB04040F
:10159C0008F1FF3A80F09980A04240F29680A8F1C1
:1015AC0002086444241A98B2B4FBF9F309FB1344FF
:1015BC0003FB0EFE40EA0444A64508D91CEB0404C8
:1015CC0003F1FF307FD2A6457DD9023B644443EA48
:1015DC000840A4EB0E04A0FB028E74454346F14672
:1015EC0061D35ED055B1FA1A64EB090404FA06F61D
:1015FC0022FA01F31E43CC40C5E9006400214EE7FA
:10160C0043084FEA510C43EAC1710A0C42EA0C42FE
:10161C008BB2C407B2FBF6F143EA0243BCFBF6FC07
:10162C00B646304637461F22181A41EA0C4161E78C
:10163C00714615E7184629E7C2F1200321FA03F099
:10164C00964024FA03F397403B43370CB0FBF7F872
:10165C0007FB18001FFA86FE190C41EA004108FB33
:10166C000EF0884204FA02F43AD9711808F1FF3CE2
:10167C0001D288421ED8091AB1FBF7F808FB0EF00C
:10168C0007FB18119BB243EA014383422FD2F31894
:10169C0008F1FF31C8D28342C6D2A8F1020133440B
:1016AC00C2E747459ED2B8EB02036EEB0C0E013835
:1016BC00F14697E7301A0144A8F1020CB1FBF7F898
:1016CC0008FB0EF0DCE7034681E7D0466AE70846E4
:1016DC00FEE63444023834E7ACF1020C33441CE728
:1016EC00091AC446B1FBF7F808FB0EF0C8E74146EF
:1016FC009AE700BF704700BF4A0011D212F50012E2
:10170C0011D20DD56FF47873B3EB62520ED44FEA4D
:10171C00C12343F0004343EA505323FA02F07047CD
:10172C004FF00000704750EA013002D14FF0FF300B
:10173C0070474FF000007047434F4D5041543332C7
:10174C0000453200494E53005647004E4F4649580B
:10175C00000D0A494D555F4750535F56414C494463
:10176C004154494F4E2076322E3620414345494E46
:10177C004E412045320D0A00434C4B3D384D487AC2
:10178C002055415254323D31313532303020454EA6
:10179C00433D53572043414E3D4E412850524F54E8
:1017AC00455553290D0A00416775617264616E6479
:1017BC006F2055322F4F70656E494D5520656D2049
:1017CC005041332065207061636F746573203078ED
:1017DC003535353520307836353332204C454E3D55
:1017EC003132332E0D0A0045323D4F4B20435243CC
:1017FC003D4F4B20504B543D0020504F533D00204B
:10180C00454D553D004E41002048454D3D00204D75
:10181C004F44453D00204750533D00204C41543D22
:10182C0000204C4F4E3D0020414C543D0020525066
:10183C00593D00204143433D00204C3D0020523D8A
:10184C0000205A4C3D00205A523D0045323D574134
:10185C004954204352435F4552523D002052585F39
:10186C004F56463D00205665726966697175652054
:10187C0055322E504132202D3E2055312E504133C1
:10188C0020652031313532303020626175642E0D87
:10189C000A000000010000000A00000064000000C3
:1018AC00E803000010270000A086010040420F0052
:1018BC00000203010001030200000000010000000F
:1018CC00FFFFFFFF00000000FFFFFFFF0000000014
:1018DC0000000000010000000100000000000000FA
:1018EC0000000000FFFFFFFF00000000FFFFFFFFF4
:0818FC000100000000000000E3
:0819040008FBFF7F0100000059
:0400000508000C7D66
:00000001FF
