:020000040800F2
:1000000000500020CD090008110A0008110A00085C
:10001000110A0008110A0008110A00080000000077
:10002000000000000000000000000000110A0008AD
:10003000110A000800000000110A0008A5030008CA
:10004000110A0008110A0008110A0008110A000824
:10005000110A0008110A0008110A0008110A000814
:10006000110A0008110A0008110A0008110A000804
:10007000110A0008110A0008110A0008110A0008F4
:10008000110A0008110A0008110A0008110A0008E4
:10009000110A0008110A0008110A0008110A0008D4
:1000A000110A0008110A0008110A0008110A0008C4
:1000B000110A0008110A0008110A0008110A0008B4
:1000C000110A0008110A0008110A0008110A0008A4
:1000D000110A0008B5030008110A0008110A0008F7
:0C00E000110A0008110A0008110A0008AB
:1000EC004FF04023D3F800241206FBD5C3F80404C8
:1000FC00704730B503782D2B10D101210130431EF0
:10010C000A25002001E005FB002013F8012F303AEE
:10011C00D4B2092CF7D901B1404230BD0021EEE731
:10012C0082B0019000202A4A019B93421CD2294A9A
:10013C00019B934220D842F21071274A019B9342B3
:10014C0024D84EF65F22019B934227D841F26F725E
:10015C00019B93422AD8019BB3F5167F2DD2019BAC
:10016C003B2B30D802B07047019B00F574209B1AD2
:10017C00019300F51070D7E7019B00F5C330A3F590
:10018C00B703A3F558630193A030D1E7019B084452
:10019C00A3F51223A3F5F8630193CFE7019B00F5B8
:1001AC007A70A3F56A43603B0193CCE7019B643002
:1001BC00A3F5BB53103B0193CAE7019B0A30A3F58F
:1001CC0016730193C7E7019B01303C3B0193C6E7D3
:1001DC00008793037F8D5B00BF2709004E29F8B57C
:1001EC0003460C4636D053290CBF022203220025AD
:1001FC000A201A4413F8011B3039CEB2092E38D814
:10020C00934200FB0515F5D100210A27184610F87A
:10021C00012BA2F13006092E1ED92E2A27D100203F
:10022C00154EDF1D13F8012F303A5FFA82FCBCF13A
:10023C00090F01D8BB4215D1104E04F0FB0406FB8C
:10024C0001001E30FFF76CFF532C06FB050000D19C
:10025C004042F8BD0222CAE707FB01220346A2F185
:10026C003001D3E756F804CB0CFB0200DAE7002090
:10027C00E2E70020EDE700BFA80D000840420F00A8
:10028C00082341F2210280EA012001B2400000293A
:10029C0080B2B8BF5040013BF7D170470A4A0B49B6
:1002AC00138809880133DBB289B2994210B505D0A5
:1002BC001188074C89B26054138010BD054A13682D
:1002CC0001331360F9E700BFAA000020A80000204A
:1002DC00AC000020A400002003463038C0B209282E
:1002EC000DD9A3F14102052A02D8373BD8B2704789
:1002FC00A3F16102052A01D8573BF7E7FF207047AD
:10030C000029F0B50C463BDA4C420025A2423DD800
:10031C00A31A9A4237D9002334271E46A41A640024
:10032C00A2424FEAD37C4FEA43034CEA46069CBFF9
:10033C00A41A43F00103013FC6F31306EFD1121BBD
:10034C00A24207D8013305D10136B6F5801F04BF90
:10035C001E46013501F0004105F2FF35314341EAFB
:10036C0005511A0A037042701A0C1B0EC3700B0A4B
:10037C00017143710B0C090E82708371C171F0BD58
:10038C00C3D10B46EDE752000135BFE76400A24232
:10039C0005F1FF35FAD8BEE7024A13680133136042
:1003AC00704700BFAC010020054BD3F80028920623
:1003BC0004D5D3F80408C0B2FFF770BF704700BF74
:1003CC0000300140994A2DE9F04F9369A3B043F4F2
:1003DC00804343F005039361D369002743F4003352
:1003EC00D361A2F58832D2F8043823F4706343F455
:1003FC008063C2F80438D2F8003823F4706343F4F5
:10040C003063C2F8003840F24132894BC3F80828F7
:10041C0042F22402C3F80C284FF040234522C3F8C3
:10042C00082442F20802C3F80C244FF0E0232022E7
:10043C00C3F8042141F63F725A6107229F611A6189
:10044C007C4C7D4E2288338892B29BB29A4200F04B
:10045C0011812388794A9BB2D15C2388242903F12A
:10046C000103DBB2764DCAB2238004D101232B6089
:10047C00744B1A70E6E72B68002BE3D00A2A02D0E3
:10048C000D2A40F0CC80062B5CD90022DFF8B49109
:10049C0009F8032099F80030242B53D149464846DB
:1004AC00027803460130002A4CD02A2AF8D1587819
:1004BC00002847D093F802B0BBF1000F42D04FF0A8
:1004CC00000A614A934230D8FFF706FFFF288046A6
:1004DC0038D05846FFF700FFFF2833D040EA081009
:1004EC0040B24FFA8AFA50452CD101234FF0000C40
:1004FC00CDF80C90084611F8012B0AB3142B19D126
:10050C00039B5248013B9C461CF8011F10F8012B21
:10051C0021B39142F8D04E4813F8011F10F8012B6B
:10052C00002937D08A42F7D00CE012F801CB8AEAC6
:10053C000C0AC7E72C2A08D02A2ADBD10022027029
:10054C00092BDDD800232B607CE722AA02EB830267
:10055C0001F801CC42F87C1C0133CBE7002ADAD13C
:10056C000998FFF7C6FD81460A98FFF7C2FDB9F15D
:10057C00000F384B07DD0598027822B1DDF81CA07E
:10058C009AF800204AB900221A70334B1A68334B80
:10059C001A60D7E7002AE3D0D4E74FF0010983F8BB
:1005AC000090069B19782E4B1970089B93F800B09D
:1005BC002C4B83F800B0FFF711FE2B4B59461860FB
:1005CC005046FFF70BFE294B18600C9B1A782D2A0E
:1005DC0021D14A464B4400214FF00A0A00E0614405
:1005EC009E4613F8010B0AFB01F1A0F1300C5FFAE7
:1005FC008CF9B9F1090FF2D92E280ED19EF80130E1
:10060C00303BD8B2092888BF00230B4402B15B42AF
:10061C00174A1360B9E70022DDE70023F5E77E2BCC
:10062C0090D8591C29600749CA540BE700100240A6
:10063C0000300140A8000020AA000020AC000020DF
:10064C008C0000200C0000200D000020980D0008EC
:10065C009F0D0008A0000020AC010020900000209D
:10066C0001000020000000209C00002098000020C9
:10067C0094000020DFF80883D8F80030DB1BB3F5BA
:10068C00FA7FC0F05F81BF4B07F5FA771C78002C1E
:10069C0000F06481BC4AD8F800301268A3EB020A5F
:1006AC0040F6B7339A458CBF4FF0000A4FF0010A61
:1006BC00B64B0DF10C091E68A6F1140000F012FBEC
:1006CC00B34900F0A1F9002305464A461946013307
:1006DC007B2B02F8011BFAD1D8F800304FF47A7258
:1006EC00D8F8001004A80393FFF70AFE4FF03F411F
:1006FC002846069500F088F9DFF898B20790DBF8E9
:10070C000050284600F0EAFAA34B08900993A3F195
:10071C00FF430A934FF07E530B939D4B0F93A3F122
:10072C00FF4310934FF080431193BAF1000F00F088
:10073C0017819A4B0022190C1B0EADF854208DF822
:10074C0056108DF85730BAF1000F00F00B814FF0B6
:10075C007C531B0E8DF85B304FF07A531893A3F13A
:10076C00EE73A3F52353363B19938D4BADF85820FC
:10077C008DF85A2017921A93BAF1000F00F0F480FA
:10078C00884B1968884A1BA8FFF7BAFDBAF1000F0D
:10079C0000F0EC80854B1968834A1DA8FFF7B0FD6B
:1007AC00BAF1000F00F0E480814B19680A221FA8EF
:1007BC00FFF7A6FDBAF1000F0CBF022304238DF83E
:1007CC008430012355208DF885308DF88630FFF765
:1007DC0087FCFFF785FC6520FFF782FC014641F69C
:1007EC000F50FFF74DFD82463220FFF779FC014692
:1007FC005046FFF745FD82467B20FFF771FC014612
:10080C005046FFF73DFD0023824619F8010B01937A
:10081C000146FFF765FC5046FFF732FD019B82460F
:10082C0001337B2BF1D1C0F30720FFF759FC0136C4
:10083C005FFA8AF0FFF754FC0135282E28BF0026FA
:10084C00B5F5B47F28BF0025504BCBF800501E6087
:10085C0054B14D4BD8F800401B68E41A40F6B7333E
:10086C009C428CBF0024012440F20263ADF80C3092
:10087C00002C7FD001238DF80E304A4B1B681A0ACE
:10088C008DF80F308DF810201A0C1B0E8DF81120DE
:10089C008DF81230002C71D0444B1B681A0A8DF85D
:1008AC0013308DF814201A0C1B0E8DF815208DF8B2
:1008BC0016300CB13E4B1C68230A8DF81830230CF3
:1008CC008DF819303B4B55201B788DF817408DF85F
:1008DC001B30394B240E1B788DF81A408DF81C30C8
:1008EC00FFF7FEFBFFF7FCFB6320FFF7F9FB01466C
:1008FC0041F60F50FFF7C4FC04463620FFF7F0FB1F
:10090C0001462046FFF7BCFC04461120FFF7E8FB2C
:10091C0001462046FFF7B4FC0026044603AD15F84B
:10092C00010BFFF7DDFB01462046FFF7A9FC013662
:10093C00112E0446F3D1C0F30720FFF7D1FBE0B230
:10094C00FFF7CEFB1D4BD3F8002892067FF578AD50
:10095C00D3F80408C0B2FFF7A1FC71E5A246A7E6E4
:10096C000023E7E60023F4E651460BE7514613E774
:10097C0051461BE723468DF80E4080E723468DE752
:10098C00AC010020A00000209000002008000020F6
:10099C00CDCCCC3D040000200AD7233C00004040C5
:1009AC003D0AD73E9C00002040420F0098000020DA
:1009BC0094000020010000200000002000300140C5
:1009CC000B480C490C4A914200D304E050F8043B0C
:1009DC0041F8043BF7E70949094A0023914200D347
:1009EC0002E041F8043BF9E7FFF7ECFCFEE70000FE
:1009FC00C00D0008000000200400002004000020AE
:100A0C00B0010020FEE700004FF0FF0C1CEAD052B2
:100A1C001EBF1CEAD15392EA0C0F93EA0C0F6FD055
:100A2C001A4480EA010C400218BF5FEA41211ED033
:100A3C004FF0006343EA501043EA5111A0FB01311F
:100A4C000CF00040B1F5000F3EBF490041EAD371F4
:100A5C005B0040EA010062F17F02FD2A1DD8B3F170
:100A6C00004F40EBC25008BF20F00100704790F0DF
:100A7C00000F0CF0004C08BF49024CEA502040EA31
:100A8C0051207F3AC2BFD2F1FF0340EAC2507047F7
:100A9C0040F400004FF00003013A5DDC12F1190F35
:100AAC00DCBF00F000407047C2F10002410021FAA7
:100ABC0002F1C2F1200200FA02FC5FEA310040F1BF
:100ACC00000053EA4C0308BF20EADC70704792F038
:100ADC00000F00F0004C02BF400010F4000F013A70
:100AEC00F9D040EA0C0093F0000F01F0004C02BF6B
:100AFC00490011F4000F013BF9D041EA0C018FE7DA
:100B0C000CEAD15392EA0C0F18BF93EA0C0F0AD0DF
:100B1C0030F0004C18BF31F0004CD8D180EA010005
:100B2C0000F00040704790F0000F17BF90F0004F9E
:100B3C00084691F0000F91F0004F14D092EA0C0F80
:100B4C0001D142020FD193EA0C0F03D14B0218BF13
:100B5C00084608D180EA010000F0004040F0FE4059
:100B6C0040F40000704740F0FE4040F440007047F5
:100B7C0080F0004002E000BF81F0004142001FBF46
:100B8C005FEA410392EA030F7FEA226C7FEA236C4F
:100B9C006AD04FEA1262D2EB1363C1BFD218414044
:100BAC0048404140B8BF5B42192B88BF704710F0DA
:100BBC00004F40F4000020F07F4018BF404211F07D
:100BCC00004F41F4000121F07F4118BF494292EAE5
:100BDC00030F3FD0A2F1010241FA03FC10EB0C0011
:100BEC00C3F1200301FA03F100F0004302D549429E
:100BFC0060EB4000B0F5000F13D3B0F1807F06D34B
:100C0C0040084FEA310102F10102FE2A51D2B1F142
:100C1C00004F40EBC25008BF20F0010040EA030037
:100C2C007047490040EB0000013A28BFB0F5000FB7
:100C3C00EDD2B0FA80FCACF1080CB2EB0C0200FA6D
:100C4C000CF0AABF00EBC25052421843BCBFD040BC
:100C5C001843704792F0000F81F4000106BF80F436
:100C6C0000000132013BB5E74FEA41037FEA226CF9
:100C7C0018BF7FEA236C21D092EA030F04D092F0C4
:100C8C00000F08BF0846704790EA010F1CBF0020F8
:100C9C00704712F07F4F04D1400028BF40F0004055
:100CAC00704712F100723CBF00F50000704700F075
:100CBC00004343F0FE4040F4000070477FEA22629C
:100CCC0016BF08467FEA23630146420206BF5FEA6D
:100CDC00412390EA010F40F4800070474FF000036D
:100CEC0004E000BF10F0004348BF40425FEA000C34
:100CFC0008BF704743F0964301464FF000001CE0DC
:100D0C0050EA010208BF70474FF000030AE000BF31
:100D1C0050EA010208BF704711F0004302D540426F
:100D2C0061EB41015FEA010C02BF844601460020E1
:100D3C0043F0B64308BFA3F18053A3F50003BCFAFC
:100D4C008CF2083AA3EBC25310DB01FA02FC6344A9
:100D5C0000FA02FCC2F12002BCF1004F20FA02F2B0
:100D6C0043EB020008BF20F00100704702F12002A3
:100D7C0001FA02FCC2F1200250EA4C0021FA02F204
:100D8C0043EB020008BF20EADC7070472447504751
:100D9C0047410024474E474741000000A086010010
:100DAC0010270000E8030000640000000A000000A7
:040DBC000100000032
:040DC0003F3F0000B1
:04000005080009CD19
:00000001FF
